:100000000C9462000C948A000C948A000C948A0070
:100010000C948A000C948A000C948A000C948A0038
:100020000C948A000C948A000C948A000C948A0028
:100030000C948A000C948A000C948A000C948A0018
:100040000C9465090C948A000C9433090C940D09E6
:100050000C948A000C948A000C948A000C948A00F8
:100060000C94AF090C948A000000000024002700C3
:100070002A0000000000250028002B0000000008D6
:10008000000201000003040700000000000000005F
:1000900000000000230026002900040404040404D6
:1000A0000404020202020202030303030303010227
:1000B00004081020408001020408102001020408F6
:1000C0001020CE0A11241FBECFEFD8E0DEBFCDBF77
:1000D00012E0A0E0B1E0E2EBF2E202C005900D9286
:1000E000AA34B107D9F723E0AAE4B2E001C01D9217
:1000F000A53DB207E1F710E0C2E6D0E004C02197C9
:10010000FE010E945111C136D107C9F70E942C0B84
:100110000C9457110C940000CF92DF92EF92FF9253
:10012000CF93DF93B091C903A0E08111AB2F8091F1
:10013000CA0390E0880F991FAC0140575F4FC090F1
:10014000CF03D090D003E090D103F090D20330E001
:1001500020E0FA01C591D491E881B90190E080E0F6
:10016000EB23EA130AC02F5F3F4F6C157D058E0508
:100170009F0578F36FEF7FEFCB01DF91CF91FF9079
:10018000EF90DF90CF90089508950895AF92BF92B9
:10019000CF92DF92EF92FF920F931F93CF93DF9353
:1001A0006C017B018B01040F151FEB015E01AE1882
:1001B000BF08C017D10759F06991D601ED91FC91A4
:1001C0000190F081E02DC6010995892B79F7C501D1
:1001D000DF91CF911F910F91FF90EF90DF90CF9023
:1001E000BF90AF900895FC01538D448D252F30E0D2
:1001F000842F90E0821B930B541710F0CF96089534
:1002000001970895FC01918D828D981761F0A28D60
:10021000AE0FBF2FB11D5D968C91928D9F5F9F7326
:10022000928F90E008958FEF9FEF0895FC01918DDC
:10023000828D981731F0828DE80FF11D858D90E049
:1002400008958FEF9FEF0895FC01918D228D892FE6
:1002500090E0805C9F4F821B91098F7399270895CE
:1002600086E193E00E94240121E0892B09F420E03B
:10027000822F089580E090E0892B29F00E943001C0
:1002800081110C9400000895FC01A48DA80FB92FD2
:10029000B11DA35ABF4F2C91848D90E001968F73AE
:1002A0009927848FA689B7892C93A089B1898C91CD
:1002B000837080648C93938D848D981306C002881C
:1002C000F389E02D80818F7D80830895EF92FF92E6
:1002D0000F931F93CF93DF93EC0181E0888F9B8D69
:1002E0008C8D98131AC0E889F989808185FF15C023
:1002F0009FB7F894EE89FF896083E889F989808146
:100300008370806480839FBF81E090E0DF91CF9114
:100310001F910F91FF90EF900895F62E0B8D10E036
:100320000F5F1F4F0F731127E02E8C8D8E110CC0A5
:100330000FB607FCFACFE889F989808185FFF5CFF0
:10034000CE010E944401F1CFEB8DEC0FFD2FF11D8A
:10035000E35AFF4FF0829FB7F8940B8FEA89FB892D
:1003600080818062CFCFCF93DF93EC01888D88238B
:10037000B9F0AA89BB89E889F9898C9185FD03C008
:10038000808186FD0DC00FB607FCF7CF8C9185FFED
:10039000F2CF808185FFEDCFCE010E944401E9CFED
:1003A000DF91CF910895833081F028F4813099F066
:1003B0008230A9F008958730A9F08830C9F08430E0
:1003C000B1F4809180008F7D03C0809180008F7791
:1003D00080938000089584B58F7784BD089584B597
:1003E0008F7DFBCF8091B0008F778093B000089510
:1003F0008091B0008F7DF9CF1F93CF93DF93282F8B
:1004000030E0F901E458FF4F8491F901E255FF4FC4
:10041000D491F901E656FF4FC491CC23A9F0162FD1
:1004200081110E94D301EC2FF0E0EE0FFF1FEE5878
:10043000FF4FA591B4918FB7F894EC91111108C0BA
:10044000D095DE23DC938FBFDF91CF911F9108956C
:10045000DE2BF8CFCF93DF9390E0FC01E255FF4F06
:10046000249186569F4FFC0184918823C9F090E027
:10047000880F991FFC01E859FF4FA591B491FC0129
:10048000EE58FF4FC591D49161110DC09FB7F894FC
:100490008C91209582238C938881282328839FBF69
:1004A000DF91CF910895623051F49FB7F8943C9159
:1004B000822F809583238C93E8812E2BEFCF8FB7EB
:1004C000F894EC912E2B2C938FBFEACF8E5087702F
:1004D000806480937C0080917A00806480937A00AD
:1004E00080917A0086FDFCCF809178009091790010
:1004F00008953FB7F8948091B1029091B202A09113
:10050000B302B091B40226B5A89B05C02F3F19F0E5
:100510000196A11DB11D3FBFBA2FA92F982F882783
:10052000BC01CD01620F711D811D911D42E0660F5E
:10053000771F881F991F4A95D1F708958F929F9230
:10054000AF92BF92CF92DF92EF92FF924B015C018C
:100550000E9479026B017C010E9479026C197D096D
:100560008E099F09683E734081059105A8F321E03B
:10057000821A9108A108B10888EEC80E83E0D81E3F
:10058000E11CF11C81149104A104B10429F7FF902E
:10059000EF90DF90CF90BF90AF909F908F90089595
:1005A000CF92DF92EF92FF920F931F93CF93DF933F
:1005B000CDB7DEB7C054D1400FB6F894DEBF0FBE42
:1005C000CDBF2FB7F8948091C4029091C502A0913D
:1005D000C602B091C7022FBF4091CB035091CC030C
:1005E0006091CD037091CE038C019D01041B150B0E
:1005F000260B370BB901A801403D57406105710535
:1006000090F48091D303C05CDE4F0FB6F894DEBF48
:100610000FBECDBFDF91CF911F910F91FF90EF9053
:10062000DF90CF9008958093CB039093CC03A09359
:10063000CD03B093CE031092C6031092C50310925F
:10064000C4031092C3031092C20362E08091C703F7
:100650000E942A0261E070E080E090E00E949E0229
:1006600061E08091C7030E942A0260E08091C70385
:100670000E94FC018091C8038551823020F58BE2F5
:1006800091E10197F1F762E08091C7030E942A028D
:100690008091D40390E08230910538F0880F991F43
:1006A000880F991F05970197F1F7F89480E00E9451
:1006B0008C006F3F7F4F8F4F9F4F61F41092D30399
:1006C000789480E0A0CF64E170E080E090E00E9448
:1006D0009E02D9CF81E00E948C006F3F7F4F8F4FE9
:1006E0009F4F61F38E010F5F1F4F6E018FEBC81A92
:1006F0008EEFD80A780180E00E948C00F7016083B9
:1007000071838283938381E00E948C00F70164836C
:10071000758386839783F8E0EF0EF11CEC14FD04DB
:1007200051F7789430E020E0F801C080D180E28079
:10073000F3804481558166817781FFEFCF16DF0614
:10074000EF06FF0631F04F3F8FEF58076807780735
:1007500019F41092D303B5CFF90183E0F595E7952D
:100760008A95E1F7EE53FC4F8081880FC416D506B9
:10077000E606F70610F180832F5F3F4F085F1F4F9B
:100780002832310589F64091C6032091C203809139
:10079000C303280F3327331F8091C403280F311D53
:1007A0008091C503820F932F911D99274817190631
:1007B00081F681E08093D30326CF8160DCCFCF9395
:1007C000DF93FC01DB0186819781029760F18081D4
:1007D000918124813581A9014F5F5F4F5583448307
:1007E000280F391FE90128811C9211962C9311972B
:1007F00024813581A9014F5F5F4F55834483820F68
:10080000931FEC0128818D919C911197822B8D93E0
:100810009C938681978102979783868390E080E0FE
:10082000DF91CF91089582E094E0FACF20916B029E
:10083000260F3327331F21323105ECF42091EE02CD
:10084000FC0190E080E0243069F082E00895A091FE
:100850006B022191AC01455B5D4FA40FB52FB11D1B
:100860002C930196861798F380916B02680F609322
:100870006B0280E0089581E008951092EE0281E01D
:100880008093ED021092E80261E082E10E94FC0197
:1008900061E083E10E94FC01E9EBF0E080818E7F62
:1008A000808380818D7F808388E48093B80085E495
:1008B0008093BC000895CF93DF9391E090934A0218
:1008C0008823B9F0C091B800D091BA008091BC00E3
:1008D0008A7B8093BC0060E082E10E94FC0160E0C2
:1008E00083E10E94FC010E943D04D093BA00C093B2
:1008F000B800DF91CF9108954F925F926F927F92EF
:100900008F929F92AF92BF92EF92FF920F931F939D
:10091000CF93DF938B01DA0191E090938E02809365
:10092000AF021092BA021092B902FB0144815581C4
:1009300060817181ED91FC9111970280F381E02D2E
:10094000CD0109957C01D091B902E1E0D13208F0E6
:100950009CC0C091AF020E9479024B015C01809162
:10096000EE0281116CC082E08093EE0281E0809300
:10097000ED028FEF8093EC021092EB02D093EA022B
:10098000AFE8B2E0E8ECF2E080E0D813A4C0109247
:10099000E9028091E902CC0FC82BC093E902809153
:1009A000E802813009F09BC01092E8020E947902AF
:1009B0004B015C018091E9028093BB008091F002C1
:1009C0009091F102A091F202B091F302892B8A2B4F
:1009D0008B2BA1F00E9479024090F0025090F1021E
:1009E0006090F2027090F302681979098A099B09F4
:1009F000461657066806790608F442C08091BC0086
:100A000083FDD8CF85EC8093BC000E9479024B0116
:100A10005C018091EE02823009F463C08091EC02A7
:100A2000E0E08F3F91F18091EC02E2E0803269F1E9
:100A30008091EC02E4E0803341F5E3E026C0809150
:100A4000F0029091F102A091F202B091F302892B91
:100A50008A2B8B2B09F483CF0E9479024090F002FD
:100A60005090F1026090F2027090F30268197909D7
:100A70008A099B09461657066806790608F06FCF63
:100A80008091EF020E945B04E5E01092BA0210929E
:100A9000B90210928E02D80114968D919C918E15F8
:100AA0009F0509F040C0E430F0F5F0E0EE0FFF1FC5
:100AB000E050FF4F80819181DF91CF911F910F9185
:100AC000FF90EF90BF90AF909F908F907F906F902E
:100AD0005F904F9008959D9191938F5F56CF85EED3
:100AE00092CF8091F0029091F102A091F202B09128
:100AF000F302892B8A2B8B2B09F48BCF0E9479026E
:100B00004090F0025090F1026090F2027090F30277
:100B1000681979098A099B094616570668067906F5
:100B200008F077CFADCF8EE091E0C6CF0895E09189
:100B3000F5028091F402E81730F4F0E0EA50FD4F3E
:100B4000808190E008958FEF9FEF08959091F502D6
:100B50008091F4022FEF3FEF981748F4E92FF0E06F
:100B6000EA50FD4F208130E09F5F9093F502C9016C
:100B700008958091F4029091F502891B990B0895D4
:100B8000CF92DF92EF92FF920F931F93CF93DF9359
:100B90007C01CB018A0120918E02222389F0EB0196
:100BA0006B01C40ED51ECC15DD0569F06991D70126
:100BB000ED91FC910190F081E02DC7010995F3CFF3
:100BC000642F0E941604C801DF91CF911F910F91ED
:100BD000FF90EF90DF90CF900895CF93DF931F9217
:100BE000CDB7DEB7698320918E022223F9F02091E0
:100BF000B902203258F021E030E0FC013383228337
:100C000090E080E00F90DF91CF9108958091BA023B
:100C1000E82FF0E0E157FD4F998190838F5F80933B
:100C2000BA028093B90281E090E0ECCF61E0CE019E
:100C300001960E941604F7CF90E080E00895FC0131
:100C400001900020E9F73197AF01481B590BBC0117
:100C500086E193E00C94C6008F929F92AF92BF9270
:100C60000F931F93CF93DF93CDB7DEB7A1970FB646
:100C7000F894DEBF0FBECDBF19A2423008F44AE09F
:100C80008E010F5D1F4F842E912CB12CA12CA5013C
:100C900094010E94DD0EE62FB901CA01EA30F4F496
:100CA000E05DD801EE938D01232B242B252B79F7C2
:100CB00090E080E0109719F0CD010E941F06A196E8
:100CC0000FB6F894DEBF0FBECDBFDF91CF911F915D
:100CD0000F91BF90AF909F908F900895E95CE1CF06
:100CE000CF93DF930E941F06EC018CE291E00E94FB
:100CF0001F068C0F9D1FDF91CF9108954F925F9239
:100D00006F927F928F929F92AF92BF92CF92DF921B
:100D1000EF92FF920F931F93CF93DF93C62E8A011A
:100D2000E901E82EF12CEE0CFF1C0E9479024B0128
:100D30005C018091EE02811165C081E08093EE023A
:100D40008093ED029FEF9093EC021092EB029C0DCA
:100D50009093EA028093E9028091E902E82AE09206
:100D6000E9028091E802813009F0B0C01092E802F7
:100D70000E9479024B015C018091E9028093BB00E3
:100D80008091F0029091F102A091F202B091F302F1
:100D9000892B8A2B8B2BA1F00E9479024090F002C4
:100DA0005090F1026090F2027090F3026819790994
:100DB0008A099B09461657066806790608F443C057
:100DC0008091BC0083FDD8CF85EC8093BC000E944D
:100DD00079024B015C018091EE02813009F478C008
:100DE0008091EB02DC2C8C1510F4D090EB02E8EC37
:100DF000F2E0A6EFB2E080E08D1551F191919D9364
:100E00008F5FFACF8091F0029091F102A091F202EF
:100E1000B091F302892B8A2B8B2B09F48ACF0E9485
:100E200079024090F0025090F1026090F2027090CE
:100E3000F302681979098A099B094616570668065C
:100E4000790608F076CF8091EF020E945B04D12CE6
:100E50001092F502D092F4028FE092E0CD1085C09E
:100E6000B12CA12C81E3C82EE881F9810284F3859D
:100E7000E02DCE010995D801ED91FC91EA0DFB1D05
:100E80008083E881F9810284F385E02DCE01099504
:100E90007501B2E0EB0EF11CD801ED91FC91EA0D69
:100EA000FB1D8183E881F9810284F385E02DCE0169
:100EB0000995D801ED91FC91EA0DFB1D908190956B
:100EC00028E097FF27C0990F9C2525C085EE7DCF90
:100ED0008091F0029091F102A091F202B091F302A0
:100EE000892B8A2B8B2B09F476CF0E9479024090B4
:100EF000F0025090F1026090F2027090F3026819D3
:100F000079098A099B09461657066806790608F08A
:100F100062CF99CF990F2150A1F62181922728E025
:100F200097FF03C0990F9C2501C0990F2150C1F76D
:100F3000891789F0E881F9810084F185E02DCE01DF
:100F40000995892B19F1E881F9810284F385E02D57
:100F5000CE010995EFCFBDEFDB0E570109F084CF2D
:100F6000F801F782E68290E080E0DF91CF911F9157
:100F70000F91FF90EF90DF90CF90BF90AF909F9038
:100F80008F907F906F905F904F9008958BE092E0EC
:100F9000ECCFCF92DF92EF92FF92CF93DF936C0171
:100FA000990FEE08FF08F7FE19C06DE286E193E0A5
:100FB0000E946601EC0166277727CB016C197D0939
:100FC0008E099F094AE00E942C068C0F9D1FDF911D
:100FD000CF91FF90EF90DF90CF9008954AE0C70146
:100FE000B601DF91CF91FF90EF90DF90CF900C94FE
:100FF0002C064F925F926F927F928F929F92AF9248
:10100000BF92CF92DF92EF92FF920F931F93CF93F5
:101010006B017C01742EAC019B010E944511882359
:1010200099F08FE291E0CF911F910F91FF90EF9097
:10103000DF90CF90BF90AF909F908F907F906F90F8
:101040005F904F900C941F0646015701E894B7F843
:101050002FEF3FEF4FE75FE7C501B4010E94451155
:1010600081110DC02FEF3FEF4FE75FE7C501B401DE
:101070000E947B0F18161CF483E391E0D4CF2FEF6E
:101080003FEF4FE75FE4C701B6010E94D310181687
:101090001CF487E391E0C7CF2FEF3FEF4FE75FEC02
:1010A000C701B6010E947B0F87FDF3CF20E030E03F
:1010B000A901C701B6010E947B0F10E000E087FF85
:1010C0000AC06DE286E193E00E9466018C01F7FAA6
:1010D000F094F7F8F094C0E060E070E080E09FE307
:1010E0007C1641F020E030E040E251E40E94800FA5
:1010F000CF5FF6CFA70196010E940F0F2B013C0195
:101100000E94F20F4B015C014AE00E942C067C0118
:10111000E00EF11ECC23C1F1C501B4010E942110E3
:101120009B01AC01C301B2010E940E0F4B015C0197
:101130006EE286E193E00E946601E80EF91EC1505E
:1011400018F120E030E040E251E4C501B4010E9412
:10115000D8102B013C010E94F20F4B01B12CA12CA5
:101160004AE0C501B4010E942C06E80EF91EC50133
:10117000B4010E9421109B01AC01C301B2010E9485
:101180000E0F4B015C01DBCFC701CF911F910F9177
:10119000FF90EF90DF90CF90BF90AF909F908F9097
:1011A0007F906F905F904F90089585ED8093BC0085
:1011B0008091F0029091F102A091F202B091F302BD
:1011C0000796A11DB11D23E0B695A7959795879524
:1011D0002A95D1F72091BC0024FD03C01092EE02A5
:1011E00008954091F0025091F1026091F2027091E5
:1011F000F302452B462B472B69F30097A105B10558
:1012000041F025E32A95F1F700000197A109B10902
:10121000E1CF8091EF020C945B041F920F920FB606
:101220000F9211242F933F934F935F936F937F936C
:101230008F939F93AF93BF93EF93FF9386E193E0D8
:101240000E944401FF91EF91BF91AF919F918F91C7
:101250007F916F915F914F913F912F910F900FBEB2
:101260000F901F9018951F920F920FB60F92112496
:101270002F938F939F93EF93FF93E0912603F09129
:1012800027038081E0912C03F0912D0382FD1BC088
:10129000908180912F038F5F8F732091300382178D
:1012A00041F0E0912F03F0E0EA5EFC4F958F8093D0
:1012B0002F03FF91EF919F918F912F910F900FBE70
:1012C0000F901F9018958081F4CF1F920F920FB648
:1012D0000F9211242F933F938F939F93AF93BF93BC
:1012E0008091C4029091C502A091C602B091C7023C
:1012F0003091B00223E0230F2D3758F50196A11D40
:10130000B11D2093B0028093C4029093C502A093B4
:10131000C602B093C7028091B1029091B202A0912F
:10132000B302B091B4020196A11DB11D8093B10228
:101330009093B202A093B302B093B402BF91AF9165
:101340009F918F913F912F910F900FBE0F901F9003
:10135000189526E8230F0296A11DB11DD2CF1F922A
:101360000F920FB60F9211242F933F934F935F93D9
:101370006F937F938F939F93AF93BF93EF93FF935D
:101380008091B900887F803609F44AC0F0F5883230
:1013900009F4A7C018F5803109F49BC0B8F488237C
:1013A00009F4F9C0883009F494C0FF91EF91BF911E
:1013B000AF919F918F917F916F915F914F913F91ED
:1013C0002F910F900FBE0F901F901895883109F440
:1013D00088C0803251F78093EC0214C0803409F445
:1013E0009DC040F48033B9F38833F9F68093EC0262
:1013F00085ECB0C0803509F485C0883509F496C005
:10140000883499F60E94D508D0CF883909F48CC069
:1014100038F5883729F050F4883611F0803729F6EE
:1014200083E08093EE0210928D0257C0883809F451
:101430007BC0803919F0803809F0B7CF80918D02D8
:10144000803208F071C0E0918D0281E08E0F8093B0
:101450008D028091BB00F0E0E359FD4F80833DC0D9
:10146000803B39F0E0F4803A09F479C0883A09F019
:101470009CCF84E08093EE0210926C0210926B027B
:10148000E091B702F091B802099580916B02811149
:101490000FC081E080936B0210924B0209C0803C28
:1014A00009F4A6CF883C09F4A3CF883B09F07DCF8F
:1014B000E0916C0281E08E0F80936C02F0E0E55BBE
:1014C000FD4F80818093BB0090916C0280916B02F4
:1014D00029C08091E9028093BB0085EC8093BC0019
:1014E00064CF9091EB028091EA02981758F5E09151
:1014F000EB0281E08E0F8093EB02F0E0E853FD4FAA
:101500008081E9CFE091EB0281E08E0F8093EB02C6
:101510008091BB00F0E0E853FD4F80839091EB0297
:101520008091EA029817C8F285E8D8CFE091EB02E3
:1015300081E08E0F8093EB028091BB00F0E0E853D6
:10154000FD4F80838091ED0281115CCF81E080931B
:10155000E80284EA8093BC001092EE0226CF85EC6C
:101560008093BC001092EE0280918D02803230F4A4
:10157000E0918D02F0E0E359FD4F108260918D0201
:1015800070E0E091B502F091B6028DE692E0099527
:1015900010928D020ACF1092EC0234CFE6E1F3E014
:1015A0001382128288EE93E0A0E0B0E084839583FA
:1015B000A683B7832CE031E03183208325EC30E033
:1015C0003587248724EC30E03787268720EC30E00D
:1015D000318B208B21EC30E0338B228B22EC30E0FE
:1015E000358B248B26EC30E0378B268B118E128EB8
:1015F000138E148EE3EBF3E01382128284839583BF
:10160000A683B7838EE191E091838083A2ECB3E05F
:1016100084E015968C93159786E116968C93169711
:10162000E2EBF0E0E4911796EC931797EEE9F0E027
:10163000E4911896EC93189740E85EE360E070E060
:101640001D964D935D936D937C935097EFEBF3E074
:101650001182108212820895CF93DF93CDB7DEB747
:101660006B970FB6F894DEBF0FBECDBF789484B5EC
:10167000826084BD84B5816084BD85B5826085BD8E
:1016800085B5816085BD80916E00816080936E001C
:10169000109281008091810082608093810080910E
:1016A00081008160809381008091800081608093BF
:1016B00080008091B10084608093B1008091B0007F
:1016C00081608093B00080917A00846080937A007A
:1016D00080917A00826080937A0080917A008160A4
:1016E00080937A0080917A00806880937A001092CB
:1016F000C100E0912603F091270382E08083E0910E
:101700002203F09123031082E0912403F09125033A
:1017100080E1808310922E03E0912A03F0912B0345
:1017200086E08083E0912803F09129038081806125
:101730008083E0912803F091290380818860808371
:10174000E0912803F0912903808180688083E091F3
:101750002803F091290380818F7D808362E080914E
:10176000C7030E942A022FB7F8948091C402909177
:10177000C502A091C602B091C7022FBF805D9740FD
:10178000A109B1098093CB039093CC03A093CD031F
:10179000B093CE0387E38093D4031092F5021092A6
:1017A000F4021092BA021092B9020E943D0484EC35
:1017B00090E09093B8028093B70285EC90E090930C
:1017C000B6028093B50283EB93E09093C0038093BD
:1017D000BF0382E68093C1038BEB92E09A838983F7
:1017E00082E090E09C838B839E838D8398878F8398
:1017F00081E0898781E28093BB0281EB8093BC0208
:1018000043EB53E0BE016F5F7F4F82E60E947C0492
:1018100061E085E00E942A0261E086E00E942A02DF
:1018200061E087E00E942A0260E083E00E942A02D1
:1018300060E085E00E94FC0160E086E00E94FC011F
:1018400060E087E00E94FC0184E491E00E94700661
:101850004BEBE42E42E0F42E53E0252E312C62E0D7
:10186000C62ED12C8FE591E00E94700684E20E9482
:1018700066029C01990F440B550B2F5F3F404109B5
:101880005109A4E6B0E00E94D20E21E030EF4FEF04
:101890005FEF0E94B30E4901398F288F89E791E0ED
:1018A0000E941F06C4010E94C9078AE891E00E94B5
:1018B00070060E94D002882341F08091C8038C30CA
:1018C00009F463C048F48B3001F1812C912C20EC99
:1018D000A22E2FE7B22E43C085518230B0F710916F
:1018E000C403612F70E0762F662766277F7780918B
:1018F000C503682B90E080E00E9421102DEC3CECA9
:101900004CEC5DE30E94D8105CC06091C40370E0B1
:1019100090E080E00E9421104B015C011091C50312
:1019200017FF0AC0AC019B0160E070E080E89FEB0C
:101930000E940E0F4B015C011F70612F70E090E060
:1019400080E00E9423102DEC3CEC4CEC5DE30E9407
:10195000D810A50194010E940F0F4B015C010E9459
:10196000D002882309F465C08091C8038B3030F021
:101970008D3080F18551823008F4B2C1412C512C58
:1019800090EC692E9FE7792E43C01091C403612F1C
:1019900070E090E080E00E9421104B015C016091BA
:1019A000C5036F7070E090E080E00E9423102DEC82
:1019B0003CEC4CEC5DE30E94D810A50194010E9420
:1019C0000F0F4B015C0117FFCACFB7FAB094B7F8FD
:1019D000B094C5CF6091C30370E090E080E00E94B6
:1019E00023102DEC3CEC4CEC5DE30E94D8102B0155
:1019F0003C016091C20370E090E080E00E942310FF
:101A00009B01AC01C301B2010E940F0F2B013C01ED
:101A1000A5019401C501B4010E944511811109C0BD
:101A2000A3019201C301B2010E944511882309F468
:101A300069C18DE891E00E94700687E20E9466020B
:101A400024E630E0DC010E944A112FEF3FE040E045
:101A500050E00E94B30E29013B8F2A8F86EC91E063
:101A60000E941F06C2010E94C9078AE891E00E94F5
:101A700070061B8A1A8AFA82E9823C822B82DE82F5
:101A8000CD82D886CF8211E0198784EE8093BB0285
:101A900088EB8093BC024091BF035091C003BE010C
:101AA0006F5F7F4F8091C1030E947C04892B09F0F6
:101AB0009FC061E070E080E090E00E949E02FB86A3
:101AC000EA863D862C861F861E86198A188A2091F2
:101AD000BF033091C003AE01465F5F4F63E070E02B
:101AE0008091C1030E947E06892B09F081C0BE014E
:101AF0006E5E7F4FCE010A960E94DF03892B09F0AC
:101B000077C08A899B899770892B09F471C01F8AD5
:101B10001E8A1D8A1C8A1B8A1A8AFA82E98289E037
:101B200090E09C838B83DE82CD82D886CF8219871A
:101B30008CEE8093BB0285E08093BC024091BF0392
:101B40005091C003BE016F5F7F4F8091C1030E941F
:101B50007C04892BE9F561E070E080E090E00E9470
:101B60009E02FB86EA86E9E0F0E0FD87EC871F86AF
:101B70001E86198A188A2091BF033091C003AE01D6
:101B8000465F5F4F69E070E08091C1030E947E066E
:101B9000892BF1F4BE016A5E7F4FCE010A960E9446
:101BA000DF038C01BE016C5E7F4FCE010A960E945E
:101BB000DF03082B192BBE016E5E7F4FCE010A9604
:101BC0000E94DF03802B912B0E891F89892B11F036
:101BD00010E000E085ED91E00E941F06B80190E062
:101BE00080E04AE00E942C068EED91E00E94700693
:101BF000EFE7F0E08491E1EBF0E00491EDE9F0E053
:101C00001491112309F497C081110E94D301E12F8F
:101C1000F0E0EE0FFF1FE057FF4FA591B4918C91BC
:101C2000082391E080E009F490E0092F182F83EE5B
:101C300091E00E941F068BE391E00130110511F045
:101C40008EE391E00E947006888D998D4E970CF07E
:101C500075C00130110509F071C061E085E00E9496
:101C6000FC0181EF91E00E947006A5019401C5017D
:101C7000B4010E944511811168C020E030E04CE0C1
:101C800052E4C501B4010E94D31018160CF05DC0D7
:101C900061E086E00E94FC0188E092E00E9470060C
:101CA000EA8DFB8D7E970CF057C061E087E00E94C3
:101CB000FC018BE292E00E94700668EB7BE080E022
:101CC00090E00E949E0280E090E0892B09F4CACD4A
:101CD0000E943001882309F4BBCD0E940000B8CDDA
:101CE0006091C2037091C30376276727762790E03F
:101CF00080E00E9421102DEC3CEC4CEC5DE30E9456
:101D0000D81084CE80EA91E00E941F0642E0C5010F
:101D1000B4010E94F90780EB91E00E94700685EB08
:101D200091E00E941F0642E0C301B2010E94F90740
:101D30008AE891E080CE10E000E079CF60E085E0B5
:101D40000E94FC018CEF91E08ECF60E086E00E9463
:101D5000FC0189E192E0A2CF60E087E00E94FC01F3
:101D60008AE392E0A8CF052E97FB1EF400940E9410
:101D7000CA0E57FD07D00E94DD0E07FC03D04EF4BB
:101D80000C94CA0E50954095309521953F4F4F4F7A
:101D90005F4F089590958095709561957F4F8F4F17
:101DA0009F4F08950E94FF0EA59F900DB49F900D28
:101DB000A49F800D911D11240895A1E21A2EAA1B43
:101DC000BB1BFD010DC0AA1FBB1FEE1FFF1FA217EB
:101DD000B307E407F50720F0A21BB30BE40BF50BE8
:101DE000661F771F881F991F1A9469F76095709571
:101DF000809590959B01AC01BD01CF010895A29FF4
:101E0000B001B39FC001A39F700D811D1124911DCE
:101E1000B29F700D811D1124911D08955058BB274C
:101E2000AA270E94260F0C9499100E948B1038F05C
:101E30000E94921020F039F49F3F19F426F40C947C
:101E400088100EF4E095E7FB0C948210E92F0E94B5
:101E5000AA1058F3BA17620773078407950720F092
:101E600079F4A6F50C94CC100EF4E0950B2EBA2F55
:101E7000A02D0B01B90190010C01CA01A001112490
:101E8000FF27591B99F0593F50F4503E68F11A163C
:101E9000F040A22F232F342F4427585FF3CF4695CD
:101EA00037952795A795F0405395C9F77EF41F16EF
:101EB000BA0B620B730B840BBAF09150A1F0FF0FB9
:101EC000BB1F661F771F881FC2F70EC0BA0F621FA5
:101ED000731F841F48F4879577956795B795F79595
:101EE0009E3F08F0B0CF9395880F08F09927EE0F2A
:101EF0009795879508950E945E1008F481E00895F3
:101F00000E94940F0C9499100E94921058F00E9415
:101F10008B1040F029F45F3F29F00C94821051118E
:101F20000C94CD100C9488100E94AA1068F3992389
:101F3000B1F3552391F3951B550BBB27AA276217C5
:101F40007307840738F09F5F5F4F220F331F441FD2
:101F5000AA1FA9F335D00E2E3AF0E0E832D0915006
:101F60005040E695001CCAF72BD0FE2F29D0660FF3
:101F7000771F881FBB1F261737074807AB07B0E836
:101F800009F0BB0B802DBF01FF2793585F4F3AF03C
:101F90009E3F510578F00C9482100C94CD105F3F59
:101FA000E4F3983ED4F3869577956795B795F795C2
:101FB0009F5FC9F7880F911D9695879597F90895AA
:101FC000E1E0660F771F881FBB1F62177307840746
:101FD000BA0720F0621B730B840BBA0BEE1F88F755
:101FE000E09508950E94B21088F09F5798F0B92F9D
:101FF0009927B751B0F0E1F0660F771F881F991F3E
:102000001AF0BA95C9F714C0B13091F00E94CC1003
:10201000B1E008950C94CC10672F782F8827B85F13
:1020200039F0B93FCCF3869577956795B395D9F795
:102030003EF490958095709561957F4F8F4F9F4F9F
:102040000895E89409C097FB3EF4909580957095AB
:1020500061957F4F8F4F9F4F9923A9F0F92F96E9F4
:10206000BB279395F695879577956795B795F11169
:10207000F8CFFAF4BB0F11F460FF1BC06F5F7F4F06
:102080008F4F9F4F16C0882311F096E911C0772318
:1020900021F09EE8872F762F05C0662371F096E821
:1020A000862F70E060E02AF09A95660F771F881FF0
:1020B000DAF7880F9695879597F90895990F000894
:1020C000550FAA0BE0E8FEEF16161706E807F9070A
:1020D000C0F012161306E407F50798F0621B730BA5
:1020E000840B950B39F40A2661F0232B242B252B26
:1020F00021F408950A2609F4A140A6958FEF811DC9
:10210000811D089597F99F6780E870E060E0089569
:102110009FEF80EC089500240A94161617061806FF
:102120000906089500240A941216130614060506DB
:102130000895092E0394000C11F4882352F0BB0F6C
:1021400040F4BF2B11F460FF04C06F5F7F4F8F4FCF
:102150009F4F089557FD9058440F551F59F05F3F0A
:1021600071F04795880F97FB991F61F09F3F79F0B9
:1021700087950895121613061406551FF2CF46953B
:10218000F1DF08C0161617061806991FF1CF8695BD
:102190007105610508940895E894BB2766277727A1
:1021A000CB0197F908950E945E1008F48FEF08950F
:1021B0000E94EB100C9499100E948B1038F00E9432
:1021C000921020F0952311F00C9482100C9488103A
:1021D00011240C94CD100E94AA1070F3959FC1F3A6
:1021E000950F50E0551F629FF001729FBB27F00DC5
:1021F000B11D639FAA27F00DB11DAA1F649F66271A
:10220000B00DA11D661F829F2227B00DA11D621F68
:10221000739FB00DA11D621F839FA00D611D221F22
:10222000749F3327A00D611D231F849F600D211D06
:10223000822F762F6A2F11249F5750409AF0F1F089
:1022400088234AF0EE0FFF1FBB1F661F771F881FF2
:1022500091505040A9F79E3F510580F00C94821098
:102260000C94CD105F3FE4F3983ED4F386957795B8
:102270006795B795F795E7959F5FC1F7FE2B880F98
:10228000911D9695879597F908950E945E10880B89
:10229000990B08950E94FF0EB7FF0895821B930BC0
:1022A0000895EE0FFF1F0590F491E02D0994F89426
:0222B000FFCF5E
:1022B200000010010C010D01000000006601C600C3
:1022C200F300B30124010201160100000000ED0534
:1022D200C0051C069605B905A60597050D0A006EF0
:1022E200616E00696E66006F7666004F4B00426158
:1022F200732021003D3D3D2053797374C3A86D6561
:102302002064C3A96D617272C3A9203D3D3D000ADC
:102312002D2D2D204E6F7576656C6C65206C656376
:1023220074757265202D2D2D0048756D6964697470
:10233200C3A920736F6C203A2000202500E29D8CF7
:102342002045727265757220444854323220210051
:1023520054656D70C3A9726174757265203A20006C
:1023620020C2B0430048756D69646974C3A92061D5
:102372006972203A20004C756D696E6F736974C37F
:10238200A9203A2000434FE28282203A20002070A6
:10239200706D004E697665617520656175203A2021
:1023A20000506F6D7065203A204F4E00506F6D7077
:1023B20065203A204F46460056656E74696C61741A
:1023C200696F6E203A204F4E0056656E74696C61DB
:1023D20074696F6E203A204F46460045636C61690E
:1023E20072616765203A204F4E0045636C616972E5
:0A23F200616765203A204F4646005F
:00000001FF
