:100000000C9462000C948A000C948A000C948A0070
:100010000C948A000C948A000C948A000C948A0038
:100020000C948A000C948A000C948A000C948A0028
:100030000C948A000C948A000C948A000C948A0018
:100040000C9447050C948A000C94B7050C94910508
:100050000C948A000C948A000C948A000C948A00F8
:100060000C948A000C948A000000000024002700F1
:100070002A0000000000250028002B0000000008D6
:10008000000201000003040700000000000000005F
:1000900000000000230026002900040404040404D6
:1000A0000404020202020202030303030303010227
:1000B00004081020408001020408102001020408F6
:1000C0001020E90511241FBECFEFD8E0DEBFCDBF61
:1000D00012E0A0E0B1E0EAEDF6E102C005900D9279
:1000E000AE33B107D9F722E0AEE3B2E001C01D9212
:1000F000A73FB207E1F710E0C2E6D0E004C02197C5
:10010000FE010E94650BC136D107C9F70E94360671
:100110000C946B0B0C940000CF92DF92EF92FF9245
:10012000CF93DF93B091EB02A0E08111AB2F8091D0
:10013000EC0290E0880F991FAC0140575F4FC090D0
:10014000F102D090F202E090F302F090F40230E07D
:1001500020E0FA01C591D491E881B90190E080E0F6
:10016000EB23EA130AC02F5F3F4F6C157D058E0508
:100170009F0578F36FEF7FEFCB01DF91CF91FF9079
:10018000EF90DF90CF900895833081F028F4813094
:1001900099F08230A9F008958730A9F08830C9F02D
:1001A0008430B1F4809180008F7D03C08091800005
:1001B0008F7780938000089584B58F7784BD0895EC
:1001C00084B58F7DFBCF8091B0008F778093B00096
:1001D00008958091B0008F7DF9CF1F93CF93DF9367
:1001E000282F30E0F901E458FF4F8491F901E255DE
:1001F000FF4FD491F901E656FF4FC491CC23A9F0EB
:10020000162F81110E94C400EC2FF0E0EE0FFF1FAB
:10021000EE58FF4FA591B4918FB7F894EC9111115E
:1002200008C0D095DE23DC938FBFDF91CF911F9163
:100230000895DE2BF8CFCF93DF9390E0FC01E255D9
:10024000FF4F249186569F4FFC0184918823C9F06B
:1002500090E0880F991FFC01E859FF4FA591B491D8
:10026000FC01EE58FF4FC591D49161110DC09FB7AD
:10027000F8948C91209582238C938881282328835D
:100280009FBFDF91CF910895623051F49FB7F894EA
:100290003C91822F809583238C93E8812E2BEFCF86
:1002A0008FB7F894EC912E2B2C938FBFEACF8E5002
:1002B000806480937C0080917A00806480937A00CF
:1002C00080917A0086FDFCCF809178009091790032
:1002D00008953FB7F89480913F0290914002A09119
:1002E0004102B091420226B5A89B05C02F3F19F0EC
:1002F0000196A11DB11D3FBFBA2FA92F982F8827A6
:10030000BC01CD01620F711D811D911D42E0660F80
:10031000771F881F991F4A95D1F708958F929F9252
:10032000AF92BF92CF92DF92EF92FF924B015C01AE
:100330000E9469016B017C010E9469016C197D09B1
:100340008E099F09683E734081059105A8F321E05D
:10035000821A9108A108B10888EEC80E83E0D81E61
:10036000E11CF11C81149104A104B10429F7FF9050
:10037000EF90DF90CF90BF90AF909F908F900895B7
:10038000CF92DF92EF92FF920F931F93CF93DF9361
:10039000CDB7DEB7C054D1400FB6F894DEBF0FBE64
:1003A000CDBF2FB7F8948091430290914402A09161
:1003B0004502B09146022FBF4091ED025091EE02EE
:1003C0006091EF027091F0028C019D01041B150BEE
:1003D000260B370BB901A801403D57406105710557
:1003E00090F48091F502C05CDE4F0FB6F894DEBF4A
:1003F0000FBECDBFDF91CF911F910F91FF90EF9076
:10040000DF90CF9008958093ED029093EE02A09339
:10041000EF02B093F0021092E8021092E7021092FD
:10042000E6021092E5021092E40262E08091E90295
:100430000E941B0161E070E080E090E00E948E016C
:1004400061E08091E9020E941B0160E08091E90275
:100450000E94ED008091EA028551823020F58BE206
:1004600091E10197F1F762E08091E9020E941B019E
:100470008091F60290E08230910538F0880F991F44
:10048000880F991F05970197F1F7F89480E00E9473
:100490008C006F3F7F4F8F4F9F4F61F41092F5029A
:1004A000789480E0A0CF64E170E080E090E00E946A
:1004B0008E01D9CF81E00E948C006F3F7F4F8F4F1C
:1004C0009F4F61F38E010F5F1F4F6E018FEBC81AB4
:1004D0008EEFD80A780180E00E948C00F7016083DB
:1004E00071838283938381E00E948C00F70164838F
:1004F000758386839783F8E0EF0EF11CEC14FD04FE
:1005000051F7789430E020E0F801C080D180E2809B
:10051000F3804481558166817781FFEFCF16DF0636
:10052000EF06FF0631F04F3F8FEF58076807780757
:1005300019F41092F502B5CFF90183E0F595E7952E
:100540008A95E1F7EC51FD4F8081880FC416D506DE
:10055000E606F70610F180832F5F3F4F085F1F4FBD
:100560002832310589F64091E8022091E402809119
:10057000E502280F3327331F8091E602280F311D33
:100580008091E702820F932F911D99274817190632
:1005900081F681E08093F50226CF8160DCCFAF92B7
:1005A000BF92CF92DF92EF92FF920F931F93CF9360
:1005B000DF936C017B018B01040F151FEB015E01C2
:1005C000AE18BF08C017D10759F06991D601ED9157
:1005D000FC910190F081E02DC6010995892B79F7F6
:1005E000C501DF91CF911F910F91FF90EF90DF90A8
:1005F000CF90BF90AF900895FC01538D448D252F6F
:1006000030E0842F90E0821B930B541710F0CF96AC
:10061000089501970895FC01918D828D981761F0DE
:10062000A28DAE0FBF2FB11D5D968C91928D9F5FF5
:100630009F73928F90E008958FEF9FEF0895FC01D4
:10064000918D828D981731F0828DE80FF11D858D87
:1006500090E008958FEF9FEF0895FC01918D228D1A
:10066000892F90E0805C9F4F821B91098F7399279F
:10067000089587E492E00E942D0321E0892B09F47C
:1006800020E0822F089580E090E0892B29F00E94DD
:10069000390381110C9400000895FC01A48DA80F6A
:1006A000B92FB11DA35ABF4F2C91848D90E00196B4
:1006B0008F739927848FA689B7892C93A089B189D4
:1006C0008C91837080648C93938D848D981306C075
:1006D0000288F389E02D80818F7D80830895EF92D9
:1006E000FF920F931F93CF93DF93EC0181E0888FEC
:1006F0009B8D8C8D98131AC0E889F989808185FFBC
:1007000015C09FB7F894EE89FF896083E889F9895D
:1007100080818370806480839FBF81E090E0DF915F
:10072000CF911F910F91FF90EF900895F62E0B8DB2
:1007300010E00F5F1F4F0F731127E02E8C8D8E116D
:100740000CC00FB607FCFACFE889F989808185FFD4
:10075000F5CFCE010E944D03F1CFEB8DEC0FFD2FB5
:10076000F11DE35AFF4FF0829FB7F8940B8FEA898F
:10077000FB8980818062CFCFCF93DF93EC01888D9E
:100780008823B9F0AA89BB89E889F9898C9185FD0C
:1007900003C0808186FD0DC00FB607FCF7CF8C919A
:1007A00085FFF2CF808185FFEDCFCE010E944D0302
:1007B000E9CFDF91CF910895FC0101900020E9F786
:1007C0003197AF01481B590BBC0187E492E00C94B0
:1007D000CF028F929F92AF92BF920F931F93CF93AE
:1007E000DF93CDB7DEB7A1970FB6F894DEBF0FBE8B
:1007F000CDBF19A2423008F44AE08E010F5D1F4FB1
:10080000842E912CB12CA12CA50194010E94F108F9
:10081000E62FB901CA01EA30F4F4E05DD801EE93A5
:100820008D01232B242B252B79F790E080E0109766
:1008300019F0CD010E94DC03A1960FB6F894DEBF3B
:100840000FBECDBFDF91CF911F910F91BF90AF90A1
:100850009F908F900895E95CE1CFCF93DF930E9442
:10086000DC03EC0182E191E00E94DC038C0F9D1F10
:10087000DF91CF910895CF92DF92EF92FF92CF93C5
:10088000DF936C01990FEE08FF08F7FE19C06DE2C7
:1008900087E492E00E946F03EC0166277727CB0183
:1008A0006C197D098E099F094AE00E94E9038C0FAB
:1008B0009D1FDF91CF91FF90EF90DF90CF90089533
:1008C0004AE0C701B601DF91CF91FF90EF90DF9032
:1008D000CF900C94E9034F925F926F927F928F9228
:1008E0009F92AF92BF92CF92DF92EF92FF920F93BF
:1008F0001F93CF936B017C01742EAC019B010E946E
:10090000590B882399F085E191E0CF911F910F91C8
:10091000FF90EF90DF90CF90BF90AF909F908F901F
:100920007F906F905F904F900C94DC0346015701CD
:10093000E894B7F82FEF3FEF4FE75FE7C501B40149
:100940000E94590B81110DC02FEF3FEF4FE75FE77A
:10095000C501B4010E948F0918161CF489E191E0C9
:10096000D4CF2FEF3FEF4FE75FE4C701B6010E94FE
:10097000E70A18161CF48DE191E0C7CF2FEF3FEF87
:100980004FE75FECC701B6010E948F0987FDF3CFE7
:1009900020E030E0A901C701B6010E948F0910E0F4
:1009A00000E087FF0AC06DE287E492E00E946F03D7
:1009B0008C01F7FAF094F7F8F094C0E060E070E092
:1009C00080E09FE37C1641F020E030E040E251E41B
:1009D0000E949409CF5FF6CFA70196010E942309D8
:1009E0002B013C010E94060A4B015C014AE00E9477
:1009F000E9037C01E00EF11ECC23C1F1C501B40175
:100A00000E94350A9B01AC01C301B2010E94220978
:100A10004B015C016EE287E492E00E946F03E80EF6
:100A2000F91EC15018F120E030E040E251E4C50168
:100A3000B4010E94EC0A2B013C010E94060A4B0102
:100A4000B12CA12C4AE0C501B4010E94E903E80ED3
:100A5000F91EC501B4010E94350A9B01AC01C30116
:100A6000B2010E9422094B015C01DBCFC701CF918B
:100A70001F910F91FF90EF90DF90CF90BF90AF90BC
:100A80009F908F907F906F905F904F9008951F92EE
:100A90000F920FB60F9211242F933F938F939F9332
:100AA000AF93BF938091430290914402A09145027D
:100AB000B091460230913E0223E0230F2D3758F5C6
:100AC0000196A11DB11D20933E0280934302909395
:100AD0004402A0934502B093460280913F02909158
:100AE0004002A0914102B09142020196A11DB11DA8
:100AF00080933F0290934002A0934102B093420240
:100B0000BF91AF919F918F913F912F910F900FBE09
:100B10000F901F90189526E8230F0296A11DB11D76
:100B2000D2CF1F920F920FB60F9211242F933F93A3
:100B30004F935F936F937F938F939F93AF93BF93E5
:100B4000EF93FF9387E492E00E944D03FF91EF91B2
:100B5000BF91AF919F918F917F916F915F914F91D5
:100B60003F912F910F900FBE0F901F9018951F92DD
:100B70000F920FB60F9211242F938F939F93EF93A1
:100B8000FF93E0915702F09158028081E0915D025D
:100B9000F0915E0282FD1BC09081809160028F5FA8
:100BA0008F7320916102821741F0E0916002F0E0C2
:100BB000E95BFD4F958F80936002FF91EF919F91CC
:100BC0008F912F910F900FBE0F901F9018958081DD
:100BD000F4CFE7E4F2E01382128288EE93E0A0E023
:100BE000B0E084839583A683B78384E091E091830A
:100BF000808385EC90E09587848784EC90E09787EC
:100C0000868780EC90E0918B808B81EC90E0938BD9
:100C1000828B82EC90E0958B848B86EC90E0978BB6
:100C2000868B118E128E138E148EA4EEB2E084E0A9
:100C300015968C93159786E116968C931697E2EB92
:100C4000F0E0E4911796EC931797EEE9F0E0E49169
:100C50001896EC93189740E85EE360E070E01D960C
:100C60004D935D936D937C9350970895789484B5DC
:100C7000826084BD84B5816084BD85B5826085BD98
:100C800085B5816085BD80916E00816080936E0026
:100C90001092810080918100826080938100809118
:100CA00081008160809381008091800081608093C9
:100CB00080008091B10084608093B1008091B00089
:100CC00081608093B00080917A00846080937A0084
:100CD00080917A00826080937A0080917A008160AE
:100CE00080937A0080917A00806880937A001092D5
:100CF000C100E0915702F091580282E08083E091B8
:100D00005302F09154021082E0915502F091560284
:100D10008FEC808310925F02E0915B02F0915C02A5
:100D200086E08083E0915902F0915A0280818061CF
:100D30008083E0915902F0915A028081886080831B
:100D4000E0915902F0915A02808180688083E0919D
:100D50005902F0915A0280818F7D808362E08091F8
:100D6000E9020E941B012FB7F894809143029091F1
:100D70004402A0914502B09146022FBF805D97408A
:100D8000A109B1098093ED029093EE02A093EF02C6
:100D9000B093F00287E38093F60261E085E00E9461
:100DA0001B0161E086E00E941B0161E087E00E9478
:100DB0001B0160E082E00E941B0160E085E00E9470
:100DC000ED0060E086E00E94ED0060E087E00E94B8
:100DD000ED008AE291E00E942D0444244A9443E00D
:100DE000542E612C712C85E491E00E942D048EE03C
:100DF0000E9457019C01990F440B550B2F5F334004
:100E000041095109A4E6B0E00E94E60821E03CEF68
:100E10004FEF5FEF0E94C708690119018FE591E06C
:100E20000E94DC03C6010E943B0480E791E00E941F
:100E30002D040E94C001882341F08091EA028C3089
:100E400009F463C048F48B3001F1C12CD12C20ECA3
:100E5000E22E2FE7F22E43C085518230B0F7C091C9
:100E6000E6026C2F70E0762F662766277F778091E9
:100E7000E702682B90E080E00E94350A2DEC3CEC04
:100E80004CEC5DE30E94EC0A5CC06091E60270E00D
:100E900090E080E00E94350A6B017C01C091E7027E
:100EA000C7FF0AC0AC019B0160E070E080E89FEBE7
:100EB0000E9422096B017C01CF706C2F70E090E0E2
:100EC00080E00E94370A2DEC3CEC4CEC5DE30E9484
:100ED000EC0AA70196010E9423096B017C010E9484
:100EE000C001882309F465C08091EA028B3030F09C
:100EF0008D3080F18551823008F406C1812C912C0F
:100F000090ECA92E9FE7B92E43C0C091E6026C2F4A
:100F100070E090E080E00E94350A6B017C016091F6
:100F2000E7026F7070E090E080E00E94370A2DECDD
:100F30003CEC4CEC5DE30E94EC0AA70196010E9498
:100F400023096B017C01C7FFCACFF7FAF094F7F8C9
:100F5000F094C5CF6091E50270E090E080E00E94DF
:100F6000370A2DEC3CEC4CEC5DE30E94EC0A4B01A3
:100F70005C016091E40270E090E080E00E94370A3A
:100F80009B01AC01C501B4010E9423094B015C0126
:100F9000A7019601C701B6010E94590B811109C032
:100FA000A5019401C501B4010E94590B882309F4DD
:100FB000BDC083E791E00E942D048FE00E9457019D
:100FC00024E630E0DC010E945E0BA30192010E9446
:100FD000C708490189018AEA91E00E94DC03C40143
:100FE0000E943B0480E791E00E942D0480E10E9472
:100FF0005701EC0189EB91E00E94DC0324E630E02C
:10100000DE010E945E0BA30192010E94C708C90184
:101010000E943B0480E791E00E942D04EEE7F0E09F
:101020008491E0EBF0E0D491ECE9F0E0C491CC23C2
:1010300009F495C081110E94C400EC2FF0E0EE0F7E
:10104000FF1FE057FF4FA591B4918C91D82391E0F9
:1010500080E009F490E0C92FD82F86ED91E00E943E
:10106000DC0381E291E0C130D10511F084E291E02E
:101070000E942D04FEE12F1631040CF073C021975D
:1010800009F070C061E085E00E94ED0084EE91E01F
:101090000E942D04A7019601C701B6010E94590BB9
:1010A000811167C020E030E04CE052E4C701B60196
:1010B0000E94E70A18160CF05CC061E086E00E940E
:1010C000ED008BEF91E00E942D040E3111050CF024
:1010D00057C061E087E00E94ED008EE192E00E943F
:1010E0002D0468EB7BE080E090E00E948E0180E0C0
:1010F00090E0892B09F477CE0E943903882309F404
:1011000072CE0E9400006FCE6091E4027091E50201
:1011100076276727762790E080E00E94350A2DEC3D
:101120003CEC4CEC5DE30E94EC0A30CF84E891E0AB
:101130000E94DC0342E0C701B6010E946B0484E90F
:1011400091E00E942D0489E991E00E94DC0342E0D5
:10115000C501B4010E946B0480E791E02CCFD0E080
:10116000C0E07BCF60E085E00E94ED008FEE91E073
:101170008FCF60E086E00E94ED008CE092E0A3CF8C
:1011800060E087E00E94ED008DE292E0A8CF052E9E
:1011900097FB1EF400940E94DE0857FD07D00E94C2
:1011A000F10807FC03D04EF40C94DE0850954095EE
:1011B000309521953F4F4F4F5F4F08959095809503
:1011C000709561957F4F8F4F9F4F08950E9413092F
:1011D000A59F900DB49F900DA49F800D911D11248B
:1011E0000895A1E21A2EAA1BBB1BFD010DC0AA1F68
:1011F000BB1FEE1FFF1FA217B307E407F50720F080
:10120000A21BB30BE40BF50B661F771F881F991FFA
:101210001A9469F760957095809590959B01AC0143
:10122000BD01CF010895A29FB001B39FC001A39F4C
:10123000700D811D1124911DB29F700D811D11240F
:10124000911D08955058BB27AA270E943A090C9473
:10125000AD0A0E949F0A38F00E94A60A20F039F4D5
:101260009F3F19F426F40C949C0A0EF4E095E7FBDA
:101270000C94960AE92F0E94BE0A58F3BA17620727
:1012800073078407950720F079F4A6F50C94E00A1B
:101290000EF4E0950B2EBA2FA02D0B01B901900191
:1012A0000C01CA01A0011124FF27591B99F0593FD5
:1012B00050F4503E68F11A16F040A22F232F342F1D
:1012C0004427585FF3CF469537952795A795F0406B
:1012D0005395C9F77EF41F16BA0B620B730B840B80
:1012E000BAF09150A1F0FF0FBB1F661F771F881F38
:1012F000C2F70EC0BA0F621F731F841F48F4879590
:1013000077956795B795F7959E3F08F0B0CF939581
:10131000880F08F09927EE0F9795879508950E94FA
:10132000720A08F481E008950E94A8090C94AD0A9D
:101330000E94A60A58F00E949F0A40F029F45F3FDD
:1013400029F00C94960A51110C94E10A0C949C0A11
:101350000E94BE0A68F39923B1F3552391F3951BBC
:10136000550BBB27AA2762177307840738F09F5FC6
:101370005F4F220F331F441FAA1FA9F335D00E2E33
:101380003AF0E0E832D091505040E695001CCAF7A0
:101390002BD0FE2F29D0660F771F881FBB1F261763
:1013A00037074807AB07B0E809F0BB0B802DBF013A
:1013B000FF2793585F4F3AF09E3F510578F00C9409
:1013C000960A0C94E10A5F3FE4F3983ED4F38695C5
:1013D00077956795B795F7959F5FC9F7880F911D2A
:1013E0009695879597F90895E1E0660F771F881F16
:1013F000BB1F621773078407BA0720F0621B730BC9
:10140000840BBA0BEE1F88F7E09508950E94C60A78
:1014100088F09F5798F0B92F9927B751B0F0E1F0B5
:10142000660F771F881F991F1AF0BA95C9F714C065
:10143000B13091F00E94E00AB1E008950C94E00A06
:10144000672F782F8827B85F39F0B93FCCF386959E
:1014500077956795B395D9F73EF4909580957095FB
:1014600061957F4F8F4F9F4F0895E89409C097FB78
:101470003EF490958095709561957F4F8F4F9F4F6B
:101480009923A9F0F92F96E9BB279395F6958795AF
:1014900077956795B795F111F8CFFAF4BB0F11F472
:1014A00060FF1BC06F5F7F4F8F4F9F4F16C0882319
:1014B00011F096E911C0772321F09EE8872F762F4F
:1014C00005C0662371F096E8862F70E060E02AF090
:1014D0009A95660F771F881FDAF7880F969587957C
:1014E00097F90895990F0008550FAA0BE0E8FEEF51
:1014F00016161706E807F907C0F012161306E407D8
:10150000F50798F0621B730B840B950B39F40A26D0
:1015100061F0232B242B252B21F408950A2609F4AE
:10152000A140A6958FEF811D811D089597F99F67B2
:1015300080E870E060E008959FEF80EC089500245B
:101540000A941616170618060906089500240A9428
:1015500012161306140605060895092E0394000CAE
:1015600011F4882352F0BB0F40F4BF2B11F460FF3D
:1015700004C06F5F7F4F8F4F9F4F089557FD905866
:10158000440F551F59F05F3F71F04795880F97FB47
:10159000991F61F09F3F79F0879508951216130601
:1015A0001406551FF2CF4695F1DF08C01616170630
:1015B0001806991FF1CF8695710561050894089565
:1015C000E894BB2766277727CB0197F908950E94F7
:1015D000720A08F48FEF08950E94FF0A0C94AD0A76
:1015E0000E949F0A38F00E94A60A20F0952311F06D
:1015F0000C94960A0C949C0A11240C94E10A0E9403
:10160000BE0A70F3959FC1F3950F50E0551F629F7E
:10161000F001729FBB27F00DB11D639FAA27F00D4B
:10162000B11DAA1F649F6627B00DA11D661F829F72
:101630002227B00DA11D621F739FB00DA11D621F57
:10164000839FA00D611D221F749F3327A00D611D74
:10165000231F849F600D211D822F762F6A2F112456
:101660009F5750409AF0F1F088234AF0EE0FFF1F89
:10167000BB1F661F771F881F91505040A9F79E3FE0
:10168000510580F00C94960A0C94E10A5F3FE4F354
:10169000983ED4F3869577956795B795F795E79536
:1016A0009F5FC1F7FE2B880F911D9695879597F93F
:1016B00008950E94720A880B990B08950E941309DD
:1016C000B7FF0895821B930B0895EE0FFF1F05903F
:0A16D000F491E02D0994F894FFCF87
:1016DA00000000006F03CF02FC02BC032D030B03C2
:1016EA001F030D0A006E616E00696E66006F7666F2
:1016FA00004F4B004261732021003D3D3D2053794C
:10170A007374C3A86D652064C3A96D617272C3A99D
:10171A00203D3D3D000A2D2D2D204E6F7576656CBE
:10172A006C65206C656374757265202D2D2D0048DB
:10173A00756D69646974C3A920736F6C203A2000BF
:10174A00202500E29D8C20457272657572204448FE
:10175A005420210054656D70C3A972617475726555
:10176A00203A200020C2B0430048756D696469744C
:10177A00C3A920616972203A20004C756D696E6FA9
:10178A00736974C3A9203A20005175616C6974C3E6
:10179A00A9206169722028617070726F7820434FA6
:1017AA003229203A20004E69766561752065617597
:1017BA00203A2000506F6D7065203A204F4E00503D
:1017CA006F6D7065203A204F46460056656E746903
:1017DA006C6174696F6E203A204F4E0056656E74C4
:1017EA00696C6174696F6E203A204F464600456302
:1017FA006C616972616765203A204F4E0045636CDF
:0E180A00616972616765203A204F4646000012
:00000001FF
